:400000000080002011000000390500003905000010B500F099FAC04670B51222224B1A6000F0CCFE214801F043FA012000F0E6FE302000F0DDFD1E4A1E4B1A601E4C80254B
:40004000ED0525601D4A116802230B4313601C4A1C4B1A6000221C4B1A601C4A136808218B431360FA20C00000F074FE184800F0B5FDE8225201174B1A60174A174B1A60FA
:4000800080221206164B1A608022D202154B1A604022154B1A601549082000F04FFD082000F036FD256070BD30001040001BB7000600008004010B400C020B4078002E40F9
:4000C000666600007C002E4064F02E406CF02E40DC0500000003014040FF00800000014008010B4000010B4004010140150F000010B572B60022174B1A6000240FE0164833
:400100006200131959000B00411889881A5AC31858880004104300F009FA0134E4B2012CEDD90E4A0E4B1A60992212040D4B1A600D4A117806230B43DBB2137030220B4B4F
:400140001A600B4A0B4B1A60FFF766FF00F0DEF910BDC0466CF02E40A03E01000000EEEE0000024000500F4000700F40000004400040DA000800044010B5064C2378002B3F
:4001800007D1054B002B02D0044800E000BF0123237010BD80100020000000009C3E0100084B10B5002B03D00749084800E000BF07480368002B00D110BD064B002BFBD001
:4001C0009847F9E700000000841000209C3E0100A00B00200000000010B5012801D0282802D1002000F070FA10BDC046F0B595B0884800F011FA62B600F0F4FE00217F2048
:4002000000F02AF901F02AF880B24E256D442880062000F003F94D246C4420708021062000F01AF9012000F0C1FC062000F0F6F820700121062000F00FF9062000F0EEF86F
:4002400020707F2000F0EAF8207032217F2000F003F97F2000F0E2F820700021012000F0FBF8012000F0DAF820700621142000F0F3F8142000F0D2F8207000217F2000F01A
:40028000EBF800F0EBFF80B228800021072000F0E3F800F0E3FF80B22880062000F0BEF82070072000F0BAF820708321842000F00BF902F0B7FB002000F0B0F813AB187055
:4002C0002E2000F0ABF84B266E4430702D2000F0A5F84A276F443870302000F09FF849246C4420702F2000F099F812AD2870322000F094F86B4647229B181870312000F0A5
:400300008DF86B4646229B181870387800023378184302F0A7FA0022FD239B0502F028F80E900F91287800022378184302F09AFA0022FD239B0502F01BF80C900D916B4677
:4003400046229B18187800026B4601329B181B78184302F087FA0022FD239B0502F008F80A900B91342000F059F827266E443070332000F053F826276F443870362000F01E
:400380004DF825246C442070352000F047F809AD2870382000F042F86B4623229B181870372000F03BF86B4622229B181870387800023378184302F055FA0022164B01F0D3
:4003C000C1FC06900791287800022378184302F049FA0022104B01F0B5FC049005916B4622229B18187800026B4601329B181B78184302F037FA0022074B01F0A3FC029084
:400400000391642000F0D2FB00F038F86B46D8804FE7C046D90100000060604000B583B001A9087000236A46137002330122682000F03CFF00F012FF8307FBD5012301229B
:400440006946682000F0AEFF00F008FFC307FBD56B46187803B000BD10B582B001AC20706170002302222100682000F01FFF00F0F5FE8307FBD502B010BDC04600B583B0B9
:40048000002201AB1A8000236A461370002301226946482000F00AFF00F0E0FE8307FBD50123022201A9482000F07CFF00F0D6FEC307FBD5642000F0A5FE01AB1878000288
:4004C0005B78184303B000BD30B583B005000C0001A901230B7001330122482000F0E6FE00F0BCFE8307FBD56B461D705C70012302226946482000F0D9FE00F0AFFE8307FE
:40050000FBD5642000F07EFE03B030BD0323044A1360044A13600022034B1A607047C0463000304030003140000E3F4010B50A00002102F03BFA10BD10B502F0F3F903684C
:400540000C2B00D1FEE7FEE770B50F4E0F4D13E029686B68AC68002202E001C901C30432A242FAD1E868002202E0002102C304328242FAD11035013E002EE9D102F0D8F9BB
:40058000FFF734FEFEE7C04601000000A041010010B50E4A136801218B43136000230AE0032B03D89A000A49505800E009489900094A885001332F2BF2D9FFF799FD034A78
:4005C000116801230B43136010BDC0460000104000000000390500000000002010B500F08DFA10BD10B50024064B1C70064B1C70064B1C70FFF7F2FF054B1C70054B1C70F4
:4006000010BDC0463B220020342200203A220020202200202822002010B590B00400142220490BA802F0B9F920231F4AD35C002B05D1FFF7D7FF012120231B4AD154002CEA
:400640002DD01A4B1C6008A805AA426006AB0893002101811B311980598017391971002313701231694402F0B9FA002818D1104B0293104B0193052300930BABAE22120195
:400680000D490E4802F000FA002809D101220C4B1A70073218210B480EF0FCFF00E0012010B010BDAC3E01009C1000202422002079020000004A0100C00000202508000060
:4006C00030220020C03E010010B502282FD81C4B1B78042B2DD11B4B1B785B072CD4002809D1194B1E221A860232596A0A805B6A10325A800CE001280AD1134B96221A86C3
:40070000C822D200596A0A805B6A8022D2015A800E4B18700C4820300CF0CAFB00280DD1084A117804230B43DBB2137006E0012004E00420FF3001E00420FF3010BDC046AB
:40074000302200203B220020A40B00203A2200207047C04603784078000218437047C04670B5050083890F2B1FD1043031332A0000210EF0A7FF041E11D16868FFF7EAFF9B
:40078000830706D50A4B1B68290082204000984705E0074B1B6829000620FF309847054A137801218B43137000E00024200070BD242200203B220020024B00225A701A70B7
:4007C0007047C0463822002010B582B00400FFF7C7FF0A4B1B78DB070ED4002809D001A912238B70A3890B80C87020680DF0CAFC02E020680DF03EFD02B010BD3B220020AC
:400800008379002B07D000200BE0C25C002A07D10133DBB200E00023052BF6D9002000E001207047F0B583B004000D00A04A117801230B43DBB21370272800D1C2E012D86A
:40084000062800D185E004D8012821D005287CD01CE1242800D1B1E0262800D1BAE0212800D013E189E0422800D1FBE006D8282800D1ABE0412800D1E0E007E14C2800D104
:40088000FBE0FA2800D1FCE0432800D0FEE0ECE001AE0127377000237370300004F0A8F8072333707770300004F0A2F802F0B2F8804B1E683000FFF7A3FF00280CD0300006
:4008C00002F0B4F87B4E00213068FFF741FF30680121FFF73DFF2AE0774B1F78774B18788001FC263601020032403F2139401143734B1B781B03F822520213401943714B3E
:400900001B785B04FE22120413400B436E4E33701A0A72701B0CB370300002F087F800213000FFF715FF01213000FFF711FF00200CF050F901A83F230370002343700CF036
:4009400067F90422614B1A70A0E02A78604B1A709CE02B78002B00D098E06B78002B06D15C4B0022DA809A805B4A1A606B60504A137801218B43137088E04D4B1B789B06FA
:4009800000D583E0554B1B78102B02D10522534BDA70534B187851490CF048FA01AB1880002804D04F4B1B6801A936209847404A117801230B43DBB2137067E06A784A4B1A
:4009C0001A7063E00222414B1A705FE004223F4B1A705BE03D4B1B78022B57D0344A1278D20753D5324A1278520708D50322374B1A702F4A137804218B43137046E02C4A41
:400A00001278120708D50422304B1A70284A137808218B43137039E0032B37D104222B4B1A70324B1B78002B30D10120FFF74CFE00282BD10322254B1A7027E0284E02229E
:400A40002900300001F0A9FF0022214B1A7031789E318900264B591801310432254801F09CFF13E0FFF7A8FE10E06988162900D9172128880DF090FB08E02800FFF7A4FE88
:400A800004E01D4A117801230B431370084B1A7811231A4209D0064A137801218B431370104B1B6829002000984703B0F0BDC0463B220020D80B00207CF2FF0F7DF2FF0FEC
:400AC0007BF2FF0F78F2FF0FDC0B00203022002034220020C0100020A00B00209C0C00203822002024220020282200203A220020004A01002C220020202200207047C046F3
:400B0000024B1B68012018407047C0460C002E401F2318401E3B8340014A13607047C04600E100E01F2318401E3B8340014A13607047C04680E100E001BE704770B5040032
:400B40000D001F2802D90020FFF7F6FF1034A40080239B059C4664442068256070BDC04670B504000E00032902D90020FFF7E4FF1F2C02D90020FFF7DFFF03252540ED007B
:400B8000063500F09EFCA408A400074B9C46644421680323AB4099430B003100A9401943216000F092FC70BD00E400E010B5040006E0084B586800F07BFC074B9C46644458
:400BC00080231B029C42F4D8024B9868604300F06FFC10BDA40C00200080FFFF10B5034B1B7B584300F064FC10BDC046A40C0020F0B557464E46C0B483B0040000F061FC20
:400C00000190E71E2D2F74D83F4B1B78DBB29C4208D83E4B1B78DBB29A463D4B1B78DBB2994631E03B4B1B78DBB29C4208D83A4B1B78DBB29A46394B1B78DBB2994623E07E
:400C4000374B1B78DBB29C4208D8364B1B78DBB29A46354B1B78DBB2994615E0334B1B78DBB29C4208D8324B1B78DBB29A46314B1B78DBB2994607E02F4B1B78DBB29A466A
:400C80002E4B1B78DBB299462D4BDE5D2F2E09D92A2C07D919222B4B1A60052000F008FC192503E0274B1D683F231D40B54206D9234BDA5D234B1A60052000F0F9FB1F4BA3
:400CC0009C4664442378DBB21F4A13601F4B52461A601F4B4A461A600520FFF77FFFB5420AD2174BDA5D174B1A60052000F0E0FB02E00020FFF720FF019800F0E6FB03B071
:400D00000CBC91469A46F0BD40F3FF0F41F3FF0F42F3FF0F43F3FF0F44F3FF0F45F3FF0F46F3FF0F47F3FF0F48F3FF0F49F3FF0F4AF3FF0F4BF3FF0F4CF3FF0F4DF3FF0F9E
:400D4000C84001002CFF0B4028FF0B401CFF0B4020FF0B4010B504000F4A116801230B4313600E4A0E4B1A600E4A1368802109020B431360002809D100200CE00120FFF7A2
:400D80002DFFFFF7BDFE002804D1013C002CF5D1102000E0002010BD60F02E400220000078002E4010002E40034B1868C0231B02184000D00120704700010B4010B50D4BB2
:400DC0001A6801218A431A601A68022082431A60094A10683024A043203C204310601068093CA043014311601A68802109060A431A6010BD00F02E4000FF2E4070B51D4B81
:400E00001B6801241C40002802D0012816D02BE0184B19680122914319601968022081431960154B19682E3081432038014319601968093881430A431A6018E00D4B1A682F
:400E400002218A431A600C4A10680725A84301431160116830208143103801431160196801220A431A6002E00020FFF765FE200070BDC04600F02E4000FF2E4010B500F04B
:400E800020FB044A1368C02109020B43136000F01CFB10BD00010B4010B500F012FB08490A68084B1A408024E40122430A600A6813408022120213430B6000F006FB10BDFD
:400EC00000010B40FF3FFFFF70B5050000F0F9FA0400FFF769FF002803D0FFF7DDFF012100E0002108482840084A1568084B2B40184310601368012901D1FFF7BFFF2000B0
:400F000000F0E3FA70BDC0460404040010020B40FBFBFBFF10B5244B1B685B0715D5234B5B685B070ED5224B596A042001401F4C62688A4362605A6A82435A629B69002B12
:400F400000D098470420FFF7BFFF174B1B685B0518D5164B5B685B0510D5154B596A8022D2001140114842688A434260596A114A0A405A62DB69002B00D098478020C00053
:400F8000FFF7A2FF084B1B685B030CD5074B5B685B0304D5064B1B6A002B00D098478020C002FFF791FF10BD10020B40B80C0020C8100020FFFBFFFF10B50920FFF7A8FD1A
:400FC00010BDC04610B500F01DF810BD10B5044A1368802109060B431360FFF7EDFF10BD0000244010B5064B1B78002B04D1FFF7E9FF0122024B1A70FFF7E8FF10BDC04644
:40100000F010002010B50024184B1C60184A194B1A60194B194A1360194A1460194A1460194A1360194B1C600920FFF77BFD03210920FFF795FD16490920FFF77FFD154B24
:401040001C60154B1C60154B1C60154B1C60154B1C60154B1C601022144B1A70144B1C80144B1C60144B1C6010BDC0460000244077080080600024400701008000032440F3
:4010800004032440100324400002244004022440D1140000C80E2440880E2440480F2440080F2440C80F2440880F24403C2200204C2200205C2200204422002010B50E4AAC
:4010C00013685B005B08136000230C490B600C490B600C4804680C49214001600B490B600B490B6010210B4B19701368802109060B43136010BDC04600002440680024404D
:401100006C00244060002440FF5CFFFF880F2440C80F24403C22002010B504000368002B09D00120FFF75AFD2368013B2360002B03D0002003E0002001E08020000610BDA9
:4011400010B5002839DBC023034208D00022284B1A601032274B1A70002310243DE0C3070FD5244B1B781B072BD5234B1B685B0001D5002300E0012310211E4A1170012453
:401180002BE0C30520D4830722D4C30605D51022184B1A70002300241FE0164B1B781B0719D5144B1B78DB0701D5252200E02422104B1A70002300240FE0012380242406B8
:4011C0000BE00123012408E001238024640004E00023022401E000230024012B02D1FFF76DFF02E0054A064B1A60200010BDC046680024403C2200206000244017030000DA
:40120000000F244010B582B0104B1B789B061AD5FA239B00584301900D4B1B689B0601D5182200E010220B4B1A600B4B18681223FF331840040001A8FFF76EFF2043F4D0A8
:40124000FFF77EFF00E0042002B010BD3C2200206400244068002440000F244010B50920FFF760FC074B1C88A2B21400064B1B789B0602D504231A4394B20920FFF748FCCC
:40128000200010BD4C2200203C220020054B1B682022134000D0082301221343024A13607047C0466400244068002440F0B583B001900C0017001D00002917D02A4B1B7888
:4012C000102B08D10920FFF72DFC284B1B68DB070ED508260FE0244B1B78602B0AD1244A138808218B431380002604E0042602E0002600E00426002E2FD128221A4B1A7012
:4013000000231C4A13601C4A13601C4B1F601C4B1C60EAB21B4B1A70019B5C00FF231C40134A138802218B4313804023164A13601649174A11601421FF31164A1160164A94
:401340001360EB0704D5FFF7A1FF144B1C6004E0124B1C600222124B1A600920FFF7D8FB300003B0F0BDC0463C220020640024404C22002040220020442200204822002018
:401380006022002054220020800F244017030000000F2440080F2440880F24404002244068002440F0B583B001900C0017001D00002917D02F4B1B78102B08D10920FFF794
:4013C000B1FB2D4B1B68DB070ED508260FE0294B1B78602B0AD1294A138808218B431380002604E0042602E0002600E00426002E39D129221F4B1A700022214B1A60214A2F
:401400001760214B1C60EBB220490B70019B5C00FF231C400120044318490B8883430B801B491C4B19601421FF311B4B19601368072B03D80422194B1A6008E0184A1368D0
:40144000802149000B4313600822144B1A60EB0704D5FFF71BFF134B1C6004E0114B1C600222114B1A600920FFF752FB300003B0F0BDC0463C220020640024404C2200207D
:401480005C22002058220020502200205422002017030000000F2440080F2440C80F2440600024404002244068002440000000000230800803D00138FDD1C046C046C046AD
:4014C0007047EFF3108072B6704780F31088704710B5AF4B1B68002B00D09847AD4B1B68DB0702D50022AC4B1A60AC4B1B789B0628D5AB4B1B68DB0507D5AA4A1188C02372
:401500009B000B431380012300E00023A44A1268D20706D5A34A118890239B000B4313800123002B0FD09D4A1278D20701D5012200E002229B49088802430A800021974A7D
:40154000117000E00023954A1278920600D417E1934A1268D20611D51022934B1A608F4B1B78DB0701D5012300E002238D4A11880B4313801022894B1A7007E1874A127809
:40158000120720D5864A126892070AD50222864B1A60844A118888239B000B431380012311E07E4A1278D20703D525217B4A117009E02421794A11707C4A1268002A02D00C
:4015C00014397B4A1160754A1278520700D4AEE0724A1278D20749D5764A1268120727D5754A1268754909681F240C40744909686418141B082C09D8002C16D1714A1168AC
:40160000714B0B401360012308340EE008240CE06B4A11686D48006841186D480068C0B20870116801311160013C002CF0D119E0604A1268520715D5614A11686348006842
:40164000411863480068C0B208701168013111601168594A1268914203D204215D4A116000E001235C495D4A116060E04C4A1268920726D502224C4B1A6059490B681D323F
:401680001A40096880231B020B4000D001239B18544A1168CB1A13601268534B1A60414A118884239B000B431380504B1A68802149020A431A6019684D4A0A401A60012395
:4016C00035E04C4A1268D2061ED427E0454A1168364A126891421DD2344A1268013A414909688A4204D1402243490A6030490A603C4A11684148006841180978C9B2404859
:401700000160116801311160354A12681F210A40082ADBD11021384A116008E0354A1268520604D52F4B1A682F4B1A600123002B2CD0244A1168244B0B4013600023314AA8
:4017400013601B4A1360304B1B789B070ED5134B1B78DB0701D5092300E00A23114A11880B43138060220D4B1A700FE0274B1B689B0601D5182200E01022164B1A6005E009
:40178000064B1B78DB0601D4FFF798FC10BDC046F41000208C0E2440880E24403C2200200C0F24404C220020000F244048220020880F2440CC0F244058220020080324404B
:4017C0005C22002060002440FFFEFFFF502200204003244068002440ED0F0000C00F244008022440402200204422002004022440FFFFFEFF8C0F2440800F244060220020E9
:4018000040022440C80F244054220020640024400160704701607047324B1A781202324B1B781A43314B1B781B02314909780B4330498B4201D1072A06D0D42109018B4249
:4018400006D1042A04D102E02B4B042200E02A4B2A490B602A4B1A602A4B1B781B022A4A1278134380229201934202D0002B02D002E0264B00E0254B254A1360254B1B7814
:401880001B02254A12781343244A934205D0244A934204D0052B05D103E0224B02E0214B00E0204B204A1360204B1B681B09204A1268AA2A15D1012B13D9164B1B780E2BCC
:4018C0000FD11C4B1B781B021B4A127813431B4A13601B4B1B781B021A4A127813431A4A1360704759F1FF0F58F1FF0F5FF1FF0F5EF1FF0F580B0000580D00006C002E40E0
:4019000074002E405BF1FF0F5AF1FF0F0220000078002E405DF1FF0F5CF1FF0F0F0F000005050000050F000080002E40EC0F00F0E00F00F06DF2FF0F6CF2FF0F84002E4094
:401940006FF2FF0F6EF2FF0F94002E4010B5FFF745F910BD10B5FFF729F910BD10B500F04BF810BD10B500F04FF810BD10B500F04BF8034800F02AF8032000F02DF810BD30
:40198000511A000010B5024800F046F810BDC046511A000000487047010200002B2070472B2070472B2070472B2070472B2070472B2070472B2070472B2070472B2070472D
:4019C0002B2070472B2070477047C046014B18677047C0460000002010B50400FFF771FD044A1368C0218B43A4011C431460FFF76CFD10BD0CE400E080225201014B1A60AA
:401A00007047C04600E100E080225201014B1A607047C04680E100E010B50400FFF7F4FF2000FFF7D3FF0320FFF7D6FFFFF7E4FF10BDC04610B5FFF744FD044A1368042151
:401A40008B43136030BFFFF740FD10BD10ED00E010B512F00FFA10BD002243088B4274D303098B425FD3030A8B4244D3030B8B4228D3030C8B420DD3FF22090212BA030CA6
:401A80008B4202D31212090265D0030B8B4219D300E0090AC30B8B4201D3CB03C01A5241830B8B4201D38B03C01A5241430B8B4201D34B03C01A5241030B8B4201D30B032B
:401AC000C01A5241C30A8B4201D3CB02C01A5241830A8B4201D38B02C01A5241430A8B4201D34B02C01A5241030A8B4201D30B02C01A5241CDD2C3098B4201D3CB01C01A27
:401B0000524183098B4201D38B01C01A524143098B4201D34B01C01A524103098B4201D30B01C01A5241C3088B4201D3CB00C01A524183088B4201D38B00C01A524143080D
:401B40008B4201D34B00C01A5241411A00D20146524110467047FFE701B5002000F0F0F802BDC0460029F7D076E7704703460B437FD4002243088B4274D303098B425FD325
:401B8000030A8B4244D3030B8B4228D3030C8B420DD3FF22090212BA030C8B4202D31212090265D0030B8B4219D300E0090AC30B8B4201D3CB03C01A5241830B8B4201D302
:401BC0008B03C01A5241430B8B4201D34B03C01A5241030B8B4201D30B03C01A5241C30A8B4201D3CB02C01A5241830A8B4201D38B02C01A5241430A8B4201D34B02C01A31
:401C00005241030A8B4201D30B02C01A5241CDD2C3098B4201D3CB01C01A524183098B4201D38B01C01A524143098B4201D34B01C01A524103098B4201D30B01C01A5241B2
:401C4000C3088B4201D3CB00C01A524183088B4201D38B00C01A524143088B4201D34B00C01A5241411A00D201465241104670475DE0CA0F00D04942031000D34042534078
:401C800000229C4603098B422DD3030A8B4212D3FC22890112BA030A8B420CD3890192118B4208D3890192118B4204D389013AD0921100E08909C3098B4201D3CB01C01AF9
:401CC000524183098B4201D38B01C01A524143098B4201D34B01C01A524103098B4201D30B01C01A5241C3088B4201D3CB00C01A524183088B4201D38B00C01A5241D9D2EC
:401D000043088B4201D34B00C01A5241411A00D20146634652415B10104601D34042002B00D54942704763465B1000D3404201B5002000F005F802BD0029F8D016E7704766
:401D40007047C046F0B556464D4644465F46F0B41D000E034C00CB0F87B0070092468146360B640D98466AD06D4B9C4235D08022430F12041343F6001E43C3009946694B5C
:401D800000279C460023644402932B0368001B0BED0F51469B46400D009500D178E0604B98426CD05B46DA004B0F802109040B4313439B465346D9005A4B9C4600236044F6
:401DC0004246201A6A40924601901F430F2F00D9B0E05548BF00C0598746374300D088E0002399460233082700260293CDE74346B34649460093029B009A9246022B00D08C
:401E0000BFE1002153460122002689461A40444B002136030C0D2405360B2643434C1B0526401E437600D207760816434846310007B03CBC90469946A246AB46F0BD330089
:401E400003434FD0002E00D1BCE1300000F04CFD03000B3B1C2B00DDADE11D220100D31A08393A008F408E40DA40B9461643304B00279C46002360444442029385E75346DB
:401E80005A4613432CD1002300219B46023397E70B4320D05B46002B00D19EE1584600F023FD03000B3B1C2B00DD8FE102005946083A91408B461D21CB1A5146D9400B000F
:401EC00059460B4351469B469140194B9C4660444042002374E7002300219B4601336FE703236DE70023994601330427002602934BE703230C27029347E70122D51A382DB8
:401F000000DCB0E153461A4000210023002689467EE700238026994600223603004B77E7FF07000001FCFFFFF8400100FFFF0F80F30300005E4500D972E100D16DE1019BB0
:401F40004D46013B01930023340002935B461E020B0E1E430B020393330C994633041B0C494620000093FFF777FD009B370043430600494620009846FFF7F4FD2C0C0904F5
:401F80000C43A04509D9E419731EA74200D95CE1A04500D859E1023EE4194346E41A49462000FFF759FD0300009A80465343494620009B46FFF7D6FD2A040904120C0A43D0
:401FC00093450DD94346D219013B974200D93AE1934500D837E102235B429C46D219E0445B46D21A4346360433439B460399180C0B0C1D00059309045B46090C0C001B040A
:402000001B0C4443049159436B4368431B190D0CEB189C4203D980246402A44660441C0C09041B04090C20185D18824200D2DEE000D1D7E0161A029B9C465D1BAC459B41E0
:402040005B42F61AB74200D106E149463000FFF703FD009B04004343494630009846FFF781FD2E0C09040E43B04509D9F619631EB74200D9F3E0B04500D8F0E0023CF61989
:402080004346F31A494618000293FFF7E5FC009B06004343494602989846FFF763FD2D0409042D0C0D43A84509D9ED19731EAF4200D9D6E0A84500D8D3E0023EED19240460
:4020C000210043463143049E059A3000ED1A0B040C0C1B0C58436643534354439A19030C9B189E4203D980225202944664441A0C00041B04000C14191B18A54250D34DD006
:4021000001231943964A019B94466344002B00DCF3E64A0709D00F220A40042A05D00A1D8A42894149428B4411005A46D20108D55A468C4B1A4093468022D2009446019B8E
:402140006344894A934200DD5BE65A46C908500708435602514601225B058146360B5B0D0A4055E680231B031E4211D05A461A420ED15E461E433603360B2A0089467B4B5D
:4021800046E6032B00D1E1E0012BBBD11A40BBE61E433603360B4246744B39E6002BB1D07D194A1EAF4252D91100A542A8D1039A9A42A5D1A6E703003E00283B9E400023E7
:4021C000994654E600F090FB203041E603005246283B9A400021934677E6504600F084FB20305EE6029B0026AB4200D323E7039E0299B44661448846B045B6415B46764291
:40220000F619B218013B0291974213D290424FD800D18EE0161A9B460DE7894500D28EE674084B46F60735005B081D434B46DB0702938BE69742EDD10399029CA142E5D9FA
:402240003E1A9B46F7E69846CAE61E00A5E6AC423ED874D0110053E70121494252E71C000EE71E002BE71F2D3CDC20230A0058465B1B9840EA4099400243481E81415E46A6
:402280001143EE404B0709D00F230B40042B05D00B00191D99429B415B42F61833023CD55346012200211A40002601238946AFE502235B429C46039CE344A446029B63448B
:4022C0009846A045B6417642F6190293B218B1E603988A1E41008142B6417642F619AD19039161E71F225242D31A5A46DA401300202D29D040225846551BA8400143481EE9
:40230000814107200B4318400026002809D00F2200261A401900042ABBD10B0070077602360BDB0803439946012253461A4000236EE502998D42BBD89B4600267BE6039894
:402340009842C5D3110032E70020D7E780265B4636031E433603360B009A8946034B57E5FF030000FFFFFFFEFE070000FF070000F0B55F4656464D464446F0B40D039946F7
:402380004E002B0B87B00700924680469B46760DCC0F002E69D06D4B9E4235D05B468022DD001204430F13432B439B46C3009846674B00279C460023664401934A461503E8
:4023C0005000D20F53462D0B400D914600D176E05E4A90426CD080225B0F120413435C4AED0094461D4353460022DB00604449463618701C6140029017430F2F00D9AFE0BF
:402400005448BF00C759BF465B461F4300D088E000239B469846023308270193CEE74946022A6AD0032A00D109E2012A00D0BBE111400022002300259046CCB200212D037D
:402440000A0D12052D0B1543434A1B0515401D436D00E4076D0825434046290007B03CBC90469946A246AB46F0BD034352D05B46002B00D18AE1584600F036FA03000B3BF7
:402480001C2B00DD7BE11D22D31A3A0001005D46DA4008398D4013008F402B439B46B8462E4B00279C46002360444642019385E752462A432CD100250023022297E75246E6
:4024C0002A4321D0002D00D154E1280000F00CFA03000B3B1C2B00DD46E11D21CB1A51460200D9405346083A954093400D431B4A944660444042002279E7012400220C4077
:40250000124B0025904699E70025002301226EE703226CE700239B4698460133042701934CE703230C27019348E700238025984600242D03054B81E75D464346019A6FE798
:402540005D4643462100019A6AE7C046FF07000001FCFFFF38410100FFFF0F80F30300004246120C91461A0C9446424617044A461B041B0C5A43604690464A4642431000EA
:40258000039262461C003F0C7A437C4342440192220C9246019A5244904506D98246802040028046C24450460390100C049048462404240C1204121905922A0C2D042D0C4A
:4025C00068432C00824648467C4350438146200C8046574357444744BA4503D9802040028046C144380C3F04B84648442404240C01900498A044404404905846000C814658
:4026000058460404200C8246070048465F434C464343604660436446834650464443380C8446E4186444A34203D980235B029C46E34448463F04230C3F0C2404E41957464F
:4026400068436F4384464D46504655434243380C814662444A445B44944503D9802040028446654403983F04834604983F0C8446E344C345804140428246100484460198FC
:40268000674484466744A344BC46A345A4419946D44464428742BF41D4458041E144A04699459B417F424042C8440743120CBA18A045A4415F423B0064422343D71843468C
:4026C0007D19DB0D6D021D435B465A02059B1A43531E9A415B46DB0D1A4343465B021343EA0107D501225C0813402343EA07029E13436D08574AB218002A4BDD580709D0CD
:402700000F201840042805D0181D98429B415B42ED180300E80104D54F4A15408022D200B2184E48824200DDE7E60124DB08680718436D02530580462D0B5B0D0C407DE6E1
:40274000802259461203114208D0154206D115432D0398462D0B4C46414B6FE65D4615432D032D0B3E4B69E603005546283B9D400023BCE6504600F0B7F82030A8E60300A5
:40278000283B9F400023BB46984689E600F0ACF8203073E60124A61A382E07DD00220C4000230025904649E6029EA3E71F2E20DC20222C001800921BF0409440934004437B
:4027C000581E83411C43F540630709D00F232340042B05D023001C1D9C4292415242AD182B021FD5012400220C4001230025904624E61F202C004042821AD440202E1CD015
:402800004022961BB5402B43581E83410720234318400025002809D00F2200251A401C00042AD8D1230068076D022D0B0124DB08034398460C40002300E60025E3E78022EF
:402840000124120315432D0398462D0B0C40044BF4E5C046FF030000FFFFFFFEFE070000FF07000070B5002830D0C317C4185C40C50F200000F038F8174B184A1B1AD21A66
:402880001F2A18DD164AD21A9440002224035B05240B5B0D0021100024030A0D1205240B1443104A1B0514401C436400ED0764082C43210070BD210091400A000B21081A76
:4028C000C4405B052403240B5B0DE3E70025002300240022DEE7C0461E0400003304000013040000FFFF0F801C2101231B04984201D3000C10391B0A984201D3000A0839F5
:402900001B09984201D30009043902A2105C40187047C04604030202010101010000000000000000014B18687047C046781000200E4B70B500251E000D4CE41AA410A54267
:4029400004D0AB00F35898470135F8E711F016FC084B00251E00084CE41AA410A54204D0AB00F35898470135F8E770BD8841010088410100884101009041010030B50024DF
:40298000A24208D0035D651C0C5DA34201D0181B02E02C00F4E7002030BD002310B59A4203D0CC5CC4540133F9E710BD03008218934202D019700133FAE77047134A1088EC
:4029C000810703D08107890F401A001D11791030484381B25088820703D08207920F801A001D800040180A494030098980B2CA0701D0503080B2890706D504495422091F3F
:402A000009785143081880B270470000C60C00200411002010B501F00BFF10BD10B501F00DFF10BD10B500F05BFA10BD10B50749044609780220002907D1204601F04EFFB7
:402A4000002802D120460AF0D7F910BD640E002070B504460120002C12D02368002B0FD0616800290CD0074D06222889208118462968FFF792FF69686068097801700020DC
:402A800070BD000004110020FFB585B0002768460E9D07734F481C460078002802D0082009B0F0BD10990F9801900095029105A807C800F007F90028F2D16946264603ABAF
:402AC00084460873002C19D0002115E08A00B75A082F09D990198078002805D0083FB7521878401C187005E0002914D00027B75290198770491CC9B2A942E7D3604600283B
:402B0000CED10F98002809D0109901F041FA002804D00120C4E701208446EFE701F08EFE2D480021416081600599016021888180022D07D3A1798171A17AC171A1890181A4
:402B4000218A418100211EE0481C19E082008B00A75AE65ABE46BE4211D26F463E80B4461E190296B678BE7001967646E6521719029EBB78B3706646A652019EBE70401C21
:402B8000A842E3D3491CA942DED3134822460C3000906846037B0799069800F01BF90028B8D168460B4C007B60700B480C3001F075FE0028AED1084907480C3107F07AF995
:402BC0000028A7D107F094F90028A3D10121217066E70000C00C0020F8100020F8B5054636480F460078002802D002242046F8BD002F60D000243249002D16D02A89D007E8
:402C00000DD02868002808D003881B3BE12B04D24088FB2801D81B2801D2012409E0900707D56868002804D1F7E70020088108604860002CDAD122482E8906811F481B2183
:402C4000801D01804180042101711C490020891C0870F00705D019480622801D2968FFF79CFE1749B00703D56A68144812788270124D0E46AD1D281F0D60486001F054FE74
:402C8000284601F043FE30890DF054FE30890DF045F828880DF048F830890DF0B5FF03461033FFF78BFE1F21C018890140183880A91F88809AE7012498E70000C00C002084
:402CC00004110020FFB58446384F1C460020BB883F78054602460646002F11D100290ED0029999420BD36146002908D0002C06D00A99002906D02E4B0B99994202D201209A
:402D000004B0F0BD002144E0AB001F19BF78002F3BD0E35A002B38D07B43591889B22B0000F04AF8050410161C253100A7782388BC46FF27233BEB37BB4222D26346032B87
:402D40001FD322E0A388002B1FD0302B19D31CE02389002B19D0282B13D316E0A289002A13D01346134F233BBB420AD20DE0268A002A0AD033460F4F233BBB4201D2964240
:402D800003D901200EE0002001E000280AD16D1CEDB2099B9D42B7D31C2463435B1802998B42ACD89642AAD8AAE70000C00C002079020000BAFF000030B47446641E2578E2
:402DC000641CAB4200D21D46635D5B00E31830BC18470000FFB583B0002469460C801F4606468C80002806D00598002803D004983043800701D0012466E0002FFBD03449EE
:402E0000049809888842F6D3FEF7BCFDFEF7AAFD00F012FC002855D100F07AFD002851D12C49084601F0E8F805042D0C4AD12A480499066081800021C18007810C98007A1C
:402E4000C00704D0684601F012FD040007D10C98007A800703D501A801F012FD0446BF1DFEB2002C20D13146059800F05DF804001AD10DF0D7FE040016D16A4610889288AD
:402E800008368518144AF1B29088D288AEB29319984207D3401B801A80B201F09DFB050007D000E0FF25012400F05EFA002D04D008E0F8B200F01CF9F6E700F081FA0749D7
:402EC0000120087000F0CAFB204607B0F0BD0000C40C00201530000010110020CC0C002010B503480078012801D101F017FA10BDCC0C002070B5084B0446DA889E88002098
:402F00005518B54206D81D68AA182260DA885118D98070BD032070BD10110020014800897047000010110020F0B587B007460D4600208900009006916846FFF7DBFF844646
:402F400000285DD1304800990160002117E02E4B88001A680629115406D22C4C0419667882185670628805E0C419203CA67A8218567022891B68C018491C4280C9B2A94294
:402F8000E5D300242DE0601CC2B2059025E01E4FA30039689600581840887118039604904E88B04217D938466F46FE80B6464F786E4677710297049F4F800168039F5E1815
:402FC000767879184E700168764659184E800068029F18184770521CD2B2AA42D7D30598C4B2AC42CFD36046002809D168460699FFF780FF8446002802D105490098086098
:40300000604607B0F0BD0000D00C0020B0410100D40C00207047000010B5002809D005494A68002A05D0011F08788000105801F081FA10BDD00C002010B50446FFF76EFFED
:40304000C0B2801DA0420CD307484068002808D0A100405801F0E0F9002801D00470001D10BD002010BD0000D00C0020F8B516460D460446FFF752FFC0B2801DA04203D293
:403080000020C0430090F8BDB2B2E9B2684601F0E9F90099481C03D0024AA000526811500098F8BDD00C0020F8B50746FFF736FF801DC6B20A49002005460C680DE06178D6
:4030C000002907D06188B94202D32078FFF7B4FF002804D1241D6D1CEDB2B542EFD3F8BDD00C002010B5002801D0FFF795FF10BD70B506460948002504680BE061780029B1
:4031000005D062882078121D0023FFF7AFFF241D6D1CEDB2B542F1D370BD0000D00C0020FFB581B00A9F16000C4620D000F0F2F8054604281BD0002F0CD03846FFF7B4FFA1
:4031400020492A0151184860002810D03A460499FFF723FC1B4928010E504618778101980570200406D47D20C000444304E0FF2005B0F0BD6404640C00F0BAF807460428E7
:4031800007D000F04FFAA0420BD800F04BFA201A03E0204600F0AAFA0020F06035720020E6E700F03FFA009000F0B6FA00980121001B009000F0ECF802493A0151180098D1
:4031C000C860E6E71C110020F8B5060116483418217A042903D0E068002802D017E00020F8BD00F01FFA054600F096FA00F0A0F804280CD001010C480F18F86800214519C6
:4032000000F0C6F80020F860284600F06FFA6068054D002801D0FFF765FF042020720020A8516081E060DAE71C110020FEB500266A46304601232549050169180D7A042D66
:4032400002D0C96800291BD000211154401CC0B20428F0D300246846005D002830D01B48210108184189476805680291002101604160042241810272C160002E02D015E0EA
:403280001354E3E700F054F804280ED001010F4808180190C6680021304600F079F801980021C160304600F021FA0126002D07D038460299A847002F02D03846FFF712FF52
:4032C000641CE4B2042CC6D3FEBD00001C1100200EB5002005216A460090118150810348694600680EF003FB0EBD0000D80C0020074A0020010189180B7A042B02D0C96843
:40330000002903D0401CC0B20428F3D3704700001C1100200549002002015218127A042A03D0401CC0B20428F6D370471C11002030B50A4B04200A4C00210A011219157A04
:40334000042D06D0D268002A03D09A4201D808461346491CC9B20429EFD330BDFFFF00001C1100207047000030B50020074C05460423020111190B72A5504D60401C4D81B5
:40338000C0B2CD600428F4D330BD00001C11002030B5094C00231A011219157A042D04D0D568002906D02D18D5605B1CDBB2042BF1D330BD2D1AF7E71C1100200020704727
:4033C0001CB5002469460C70142001902346054A05480EF091FA04480068401C00D1FF2420461CBD3D340000D80C00203EB5124A0146FF2000230124126800290DD00129FB
:4034000014D0042908D104206946009308814B8110460EF06CFA80B23EBD6846009304814381694610460EF05DFAF4E768460093048143816946EBE7D80C002070B545893F
:403440000468416800890300FFF7B6FC08280509091E22282628002005F0E8FB1EE0022908D0C8B22A4621460CF0A4FB2046FFF739FE13E002202A4621460CF09BFB2946A1
:40348000204600F00DF809E000200DF02FFF05E02046FFF7CBFE01E0FEF796FA002070BD014B0022DB681847DC0C002070B5448905680089022803D0032809D0FF2070BD73
:4034C0002246094C0023A46829460120A04708E0FFF7A4FA241DA2B200232946022006F09CFB002070BD0000DC0C002070470000024800214160018041807047DC0C0020FE
:4035000070B50C46002186B016460391012802D0022859D116E003A9012006F0D3FB01281BD1039D324621462846FFF736FA0095287801900220694608814E816846FFF73C
:40354000B5FF41E0214D002B686809D0049004A9022006F0B7FB01281DD0022006B070BD002812D0298840182146FFF716FA28880024801980B228806988091D884206D18F
:403580002C801348FFF792FF03E00320E6E788421AD96C6018E004986860E278A378110219430B4A698000231060E3565360032313815181A1788170E178C170617841707A
:4035C00021780170042028800020C7E7DC0C00205C1100203EB515460C46022803D004280CD000203EBD0091019002206946088107484A8100680EF07AF907E00CF0DAFAAC
:40360000044B0022DB6829462046984701203EBDD80C0020DC0C0020014AD16090607047DC0C0020034801688068081A0A214843000970476811002010B5FEF797F948224E
:4036400004490548FFF7A9F903490120C870002010BD0000CC4101006C15002010B5FEF77DF910BD70B5134C2368002B08D0207B1149C20705D04008400020738868A0800A
:4036800070BD88680B4AA18880B29268814203D90A4D691A091802E0814202D2411A5118A160A080A0689842EAD30EF03DF900F013F870BD68110020C0102E40FFFF00007B
:4036C00010B508461946FFF7A7FF10BD704710B5FFF780FF10BD000003480021016041608160C1607047000068110020024610B5FF20002A0CD0FFF7EFFF064C0321207B4A
:403700000843207310010A21FEF72CFA2060002010BD00006811002000B504480A21806848430209FFF7D8FF104600BD681100200248007B8007C00F7047000068110020C0
:4037400010B54B490868002802DA4A4B01221A70022290430860484800694549C00B4031096A0246C907C90F0A4259D0012000F097FA3F480E216C30FEF74CF83E4820214C
:403780008430FEF747F83C4814219C30FEF742F83948FF21C131A430FEF73CF83648FF212F31B030FEF736F833483449BC30FEF731F831483249AC30FEF72CF830492E4802
:4037C000491CB430FEF726F82B482E49B830FEF721F829482C49CC30FEF71CF826482B490830FEF717F824482949A830FEF712F8214828498830FEF70DF81F4826498C30B1
:40380000FEF708F81C481921C9029030FEF702F8FEF702F8FEF7BEF8C0B2022812D01FE000290BD0002101420AD0114801216030FDF7F0FF0120FEF78DF897E70121F2E720
:40384000FF2010BD15491648FDF7E4FF14481549001DFDF7DFFF124800210830FDF7DAFF54200449C043891C0870002010BD000000F02E40EC0C002000002E4032030000B9
:403880002F3F00003102000010520000EC160000FA12000031D000003AE300009956000080012E40F80F000070B50646581C80B245086D00002408E0304600F0C1F8105593
:4038C000000A1119A41C4870A4B2AC42F4D3D80705D0D0182038D15CC47FD454C17770BD30B50A4C002100195B1E07E0541864782502545C2C430480891C89B29942F5DBAE
:40390000994201D1515C018030BD000000102E4010B5FF2000F0C4F90F49FF2048700E481021801D41800121417001700A490020C91C4870FFF704FF04000AD100F010F977
:4039400007210648FDF764FF044807211830FDF75FFF204610BD0000EC0C0020CC112E4070B5002405465B1E0AE0284600F068F8010A161971702D1D1055A41CADB2A4B2E2
:403980009C42F2DB9C4203D1284600F059F8105570BD000070B500210A4D5B1E0AE0541864782602545C344346193480001D891C80B289B29942F2DB994202D1515C401934
:4039C000018070BD00102E40F0B50599091FCFB200217E1E0BE0541864782502545C2C43164D45192C80001D891C80B289B2B142F1DBFC0712D01C78515C24020F4A0C432A
:403A000081180C809C785D78001D210280B2294384182180001D80B2D9780CE059781A7809021143054A84182180001DD9789B78090280B2194380180180F0BD00102E4025
:403A4000014940180088704700102E4010B50B490020487000F084F8002000F047F9002000F034F907210648FDF7D2FE044807211830FDF7CDFE002010BD0000EF0C002040
:403A8000CC112E4010B50B46062812D006DC01280CD0032801D1FFF7D9FF10BD0A28FCD00B28FAD105480078107010BDFFF730FF10BD1146184600F035F910BDF20C002058
:403AC000F8B5244DAC6A0127A007234E002816DA307806280ED1286A384328621F480069F903084381B21D481030FDF793FE042000F0D6F8174802212830FDF789FEE0075C
:403B000018D000F01DFF01280FD1002000F06AFF062000F0C5F81049FF20C91E48707078002802D1686B384368630A4801212830FDF76EFEE0050BD53078042802D105206C
:403B400000F0AEF80348FF2101312830FDF760FEF8BD000040F02E40EF0C002000002E4010B503212348FDF755FE0120FDF7EEFE20483038406A204C80076178800F890092
:403B800001431C480C38FDF745FE6078002808D0401E022181401820FEF7CEF8C000083800E0B82081B21548FDF734FE1348032109021438FDF72EFE10481149B830FDF7E3
:403BC00029FE612189010F48FDF724FE0D480321001FFDF71FFE0C490C48FDF71BFE0B480B496038FDF716FE084801218838FDF711FE10BD70F02E40F20C0020D8102E403B
:403C000090890000041E2E40FF0F000058122E40209000000849087806280BD148780749002803D1486B400840004863C86A01221043C86270470000EF0C002040F02E4036
:403C40000148007870470000EF0C002000B50300FFF7B2F8080D050D0B070507090D012000BD032000BD042000BD022000BDFF2000BD0000074A9168D26889B2064B92B250
:403C8000994204D105498A4201D1012100E000210170704780002E4033D000003FE3000010B50446FDF75EFE072C01D9FF2C01D102480470FDF752FE10BD0000EF0C0020B7
:403CC0000149487070470000EC0C002010B5064A012805D01921C9021046FDF79BFD10BD1D21C902F8E7000090002E4010B50A4A141D012808D009491046FDF78BFD084986
:403D00002046FDF787FD10BD04491046891CFDF781FD0349491DF3E788002E4031D000003AE3000070B50C460546FDF733FEC0B202280E49287804D0FF2810D04C280CD8D1
:403D400010E0FF2809D10A4AD0680004800F032801D0087807E09069000A553803E00878207070BD4F382070087070BDEE0C002000002E40F0B50122002834D0002932D0BD
:403D80000424420600D00524792342065B06D21800D0641C034600221EE00C2516466E43124D00277519AF72104F002ABB51696007D0661EB24209D10D4E86197606760EBE
:403DC00005E05E06760E8027BE1B00E080269B198919521C2E81D2B2A242DED303480549006B002288611046F0BD0000F413002079020000F80C002018B500206946087078
:403E00000A48006900280ED0132149014018047E684604704F21C900054800F059F8A04201D0012018BD002018BD0000F80C002078110020074900200C2242435218927A7C
:403E4000012A05D0401CC0B20628F5D30020704701207047F4130020F8B50E000446154609D0194F19497868A04202D94018A04201D38D4201D90120F8BD31462046FEF7A9
:403E80007DFD00281ED02A4631462046FEF785FDE8B200210C224A43D21913895568EE18A6420BD90126641B1B1B9672834209DA1469C01A044AC0B220329676491CC9B241
:403EC0000629E7D30020F8BDF413002079020000034610B50020024604E09C5C2018521CC0B292B28A42F8D310BD000070B500F05FF8084C064A216907480D46FEF74DFDD5
:403F000005492846FFF736FFFFF776FF207070BD79020000F80C002078110020002070470020054A002902D0012902D002E0906000E0D06000207047F80C002070B5084C97
:403F4000154608460549E26889182A46FEF725FDE0684019E06028B270BD000078110020F80C00203EB50A226946FFF7E7FF044606480A2200686946FEF700FD002802D0B2
:403F80000020C0433EBD20463EBD0000FC0C0020002802D0044A914201D2FF20704703494A6108610020704779020000F80C0020024800218160C16070470000F80C002078
:403FC00070B5074C15460548A26880182A46FFF743FFA0684019A06028B270BD78110020F80C002010B503490A220968FFF7E8FF10BD0000FC0C002010B50F4A00231360EE
:404000000E4A13600E4B18600E4801600E49012008600E490860000290600E490C4808600D4914300860FF381538506000F0BCF800F0CAF9002010BD2C0D0020140D002075
:40404000400D0020440D0020300D0020200D00203C150020240D0020380D0020014610B50020002910D0094B1A689C685118A14209D25868196080188A0704D08A07920FF3
:40408000891A091D196010BD002010BD140D0020F8B50024164E671E321F3D463168136806E01422624310328A58521C1BD0641C9C42F6D36A1C14D02C46142254432246AB
:4040C0000C3288500C214843FFF7C8FF3168002808510AD031680020103408517068401C70602846F8BD2546E4E73846F8BD0000240D0020F3B50026F64381B000281BDBB4
:404100001E490968884217D80299002914D01B4F142204463F1D54432546396810354859401C09D0FDF71EFC38682F1F4159C359994203DBFDF712FC3046FEBD2146083104
:404140000091465801590C20704308180C220299FEF723FC0948761C001D0068C159B14200D100260549009A091D865008684159491C4151FDF7F2FB0020FEBD200D002080
:40418000002803DB07490968884202D90020C043704704491422091D096850431030085870470000200D0020F0B500200D4A451E0346171F50600FE014260146714314681A
:4041C0000E1DA3510C461668083433511668083435511468401C635039688842ECD30020F0BD0000240D0020F3B50026F64381B0002841DB2349096888423DD80299002901
:404200003AD0204F142204463F1D54432546396810354859401C2FD0FDF7A4FB3868415900292BD0211D009146580C21005971430F46C1190C220298FEF7AFFB114800219D
:40424000001D0068761C00590C34C0190160416081600C48001D00680159B14200D100260849009A091D865008684159491E4151FDF774FB0020FEBD3046FEBDFDF76EFBFF
:40428000FAE70000200D0020FEB504460D4600201E49089E0860471E009001900290002C11D0486885420ED2002A0CD0002E0AD0642E08D808460C3001681C2068430C18F1
:4042C000207A002801D03846FEBD0120226020721846FFF7DDFE6060401C13D06681A6810A4827610C3067610179A94200D205710021684601810A462846029B00F040F822
:404300002846FEBD00202072DDE700002C0D002038B50124009400F039F838BDFEB50027164EFF433D4600240EE01C20316860430818017A002906D04068FFF721FF0028BC
:4043400001D0254603E0641C3079A042EDDA681C12D01C2130684D434419FDF703FB69466068FFF741FF0546FDF7F8FA002DD9D1216868468847D5E7FEBD0000380D00209B
:4043800038B50024009400F001F838BD1FB500220C49541E0A60002811DB496888420ED808491C220C31096850430818406801A9FFF7A0FE401C02D0002004B010BD2046D3
:4043C000FBE700002C0D0020F0B50021114A4D1E174611710C3F0B46BD6016E008461C2460431668041D355114680646235014680836A3551468361DA353044616680A345A
:40440000335318301468491C255078688142E5D30020F0BD380D002038B500210091002811DB0F49097888420DDA0D4D04010C3529680859002807D0201D0818694600F001
:404440006FF9002801D0002038BDFDF78BFA28680F34015D491E0155FDF780FA009838BD480D0020F7B582B0002502986E1E06602E48D21C024017462D4A2C4610460C38DA
:404480000178106805E02301C358002B0FD0641CE4B28C42F7D3711C28D03401211D40180191039900F02AF900281FD101E02646F1E71F48016820460C300F521C4803998E
:4044C000026820460E30115419480399026820460F3011540398784300F0A0F8144900280968085102D00024009011E001251AE00F48016801980818009900F02CF90028C5
:4045000001D0012502E00098C0190090641CE4B203988442ECD3002D05D10298066004480179491C0171284605B0F0BDFCFF0000540D0020F8B50D4600216A468C4611804B
:40454000002839DB23490978884235DA214B04010C3319680A59002A2ED020460C300B5A801C0E5C184670438018954224D3854222D2002006E007465F43BF18AF4206D0AB
:40458000401CC0B2B042F6D36046002814D0114E271DC8190C366A46294600F006F900280AD168460088012808D030682946C01900F0D1F8002803D00120F8BD0020F8BD73
:4045C000FDF7D0F930680F34015D491C0155FDF7C5F9F3E7480D0020F8B50F46002400F031F8002817D10C4900220B460C334A600EE021011D680E466A501D680C36AA53A2
:40460000B61C1D680F31AA551D68641C6A54E4B2BC42EED31A71F8BD480D002000280BD0C01C074A81085068890053884118994203D89368516018187047002070470000C9
:40464000480D0020F8B5064600200F4D009029700C0121466846FEF74DFC00280CD129460C3100980860301B001F84B221466846FEF740FC002801D0FF20F8BD6C800098DF
:40468000A8600020F8BD0000480D0020F8B5002827DB19490978884223DA174C05010C342168485900281CD028460C30085A009028460E300E5C401C0E5420682F1DC01923
:4046C00000F064F800280CD12068002445590EE0094829460C300068C01900F03CF8002801D00120F8BD00982D18641CE4B2B442EED30020F8BD0000480D002030B50D46D5
:4047000004000BD0A800FFF789FF6060002805D000202570C0436080002030BD012030BD70B50D46040005D0002D03D00220205E002801DA012070BDFDF714F90221615EDF
:4047400060688900405828606088401E6080FDF705F9002070BD70B50D46040007D0002D05D002212078615E401E814201DB012070BDFDF7F7F86088401C00B260806168C7
:4047800080000D50FDF7EAF8002070BD10B5040009D0227800216068FEF708F90020C0436080002010BD012010BDF0B500231D46002802D00224045F0AE00120F0BD4668EC
:4047C0009F00F6598E4201D1012503E05B1CDBB29C42F4DA15700020F0BD000001480078704700005C0D00207CB505460024FEF715F9A8796946087000A8062229460130C2
:40480000FEF7CBF80021684604F0D6FC0C2806D0072806D01F2806D0122806D006E0022404E0042402E0272400E0012420467CBD01480121417270477416002010B500F0D2
:404840005FF9FFF7FDF9FFF701FA10BD70B504460025FEF7E3F8002C06D0A079012803D8214602F073FC00E00125284670BD01460120002902D05020088000207047000018
:4048800001460120002905D0034854220078504308800020704700005E0D002010B502460D49FE204870032410460DF043FB002810D10DF0E7FA00280CD105F05FFA002889
:4048C00008D100F013FB002804D104F01BFF002800D10024204610BD5C0D002070B50025044600280ED0A07901280BD8FEF796F8A0790028204602D002F0B6FF03E002F0C6
:404900008BFF00E00125284670BD0000014610B50120002904D006220248FEF73EF8002010BD0000680D002001460120002903D00878024908700020704700005E0D0020FA
:404940000148007A704700007416002038B504460120002C20D0617801291DD800290BD0FF25E535FEF75AF80C4828180088C0B22070072803D00EE0FF25CD35F2E70020F1
:40498000694608706846FFF775F969460878012801D108202070002038BD000000102E40014A0021926810475C0D002008B500226B461A7026280CD0094A342852680BD07B
:4049C000352805D1900703D50021352005F0B2FA08BD19462620F9E7D007F9D03420F5E75C0D0020014908727047000074160020F8B504460120002C26D06178012902D91E
:404A00002278092A20D8002905D0FF25E5352078092803D004E0FF25CD35F8E708202070FDF7FCFF2078114F114E08280DD00020FFF75CF970780128207810D00D4969181A
:404A40000880FE2070700020F8BD0120FFF74EF90720B8810549203188800120F2E7B8810248217820308180EBE70000C0112E405C0D002000102E4070B50E46050001D0A8
:404A8000002400E00C4C002C11D0E28A500609D5D107C90F022002F07BFFE08A40218843E08204E0D107C90F012002F071FF3146284602F059FC70BDD4150020F8B5054646
:404AC000002004460D4E009013E022466946284600F0D2FF0098002801D00DF00DFAA878214602F09BFAA878214602F089FA641CE4B2308AA042E8D8F8BD0000A01600208C
:404B000038B51E4CFFF79CF8042813D0052811D0062812D003282AD007280AD100206946087002460120FEF7ADFFFFF789F80128FBD138BD00F077FB38BD02F0C5FA00F08E
:404B400072FB02F025FB8007800F0228F4D10C4841880029F0D05B21095D0029ECD101210170A07D0140022002F012FF38BD02F0AFFA0120FFF794F838BD0000D41500209C
:404B8000820D0020F8B50646002402F06FFF0546304602F085FF03460A480021068A0DE001228A401046174628401F40002803D0002F01D1224394B2491CC9B28E42EFD8D4
:404BC0002046F8BDA01600201CB50020694648706846FFF7BBFE01AA69460A20FEF752FF6946042008561CBD70B50D4601F02AFB04000BD02079002808D0FDF70FFFE178DA
:404C0000A0782A4602F036FC002070BD022070BD0148007870470000AC1500204030C07E002800D00120704700B500F001F800BD902148430749084A40186030417F491C0F
:404C4000C9B24177D289914201D300214177C8B270470000B4150020A016002013B501F0F1FA04000BD001F08EFE002807D0214601AA0A310620FEF705FF00201CBD0220B0
:404C80001CBD000010B50C4601F0DCFA00280AD001F079FE002806D0224604490A20FEF7F1FE002010BD022010BD000095150020F3B581B0074601460026029802F0CEFE81
:404CC0000446002F01D0002500E0154D002D21D0284601F0EDFA032C04D13946029802F019FF06463846029902F08AF9032C06D0002C10D00121384601F0E0FB03E03146C7
:404D0000384603F00DF9284602F06EF80221284602F084F8FEBD3846029902F071F9FEBDD415002010B5044600F066FA002804D103F0C0FD002801D00C2010BD2078611C30
:404D400002F09AFCFF2801D01F2010BD02F0E0FCFF280AD02178621C02F0E0F8044821780068026B601C904710BD072010BD0000A80D002010B503F09DFD002801D00C20DD
:404D800010BD02F05BFC03480068C06A8047002010BD0000A80D002070B50D46044610210CF0EAFF1021601806460CF0E5FF334610221946204603F0ABFD102130460CF01C
:404DC000DBFF02202870204604F0D2FB70BD0000F8B504464078217802028006870FE0781143A67809050002090D0643084601F029FA00210546F2B2002812D0002C10D0A2
:404E0000022F0ED0032F0CD0002A0AD00279092A07D0002A05D0134A5A23527E1B5C9A4207D82889002104F0D8FA20460DF064F8FF21002914D10C4822460068294643692D
:404E400030469847C0B2FF280AD128464030817EF2B2491C8176FF232146284600F0E3F8F8BD00006C150020C40D00200020704710B5044603F01EFD002801D00C2010BD9D
:404E80002078611C02F0F8FBFF2808D002F030FB044821780068426B601C904710BD1F2010BD0000A80D002010B500F06BF904F029FC002010BD10B5044600786178E27808
:404EC0000843A17811430843217908436179084305D003F0E1FC002803D00C2010BD122010BD204602F0C0FC002010BD10B5FCF751FD02F0DDFD044803F048FD02F002FBC7
:404F0000012000F003F810BD7C150020F1B586B003A8009005A8019028489F22817A114081726846FDF794FD002845D169460989C90705D0224806990068C26868469047AB
:404F400069460989890706D5002835D11D480068816A0698884700282ED11B4E0025757075737571F575357675767575B570F570B5713746F5730120D03738731F20F880C1
:404F8000FF2130467972A0300176457600F0BCFA00242046069901F0A1FC002803D1641C2406240EF5D0FD720749BD72B573C0310D704D704D600D7207B0F0BD6C15002002
:404FC000C40D0020A80D0020B415002070B505460E46084602F04AFD0446304602F060FD0121A9400A46224001400A4301D0012070BD002070BD10B50446084602F050FD55
:405000000121A140014201D0012010BD002010BD10B5FEF715FE032804D102F059F80120FEF73EFE10BDFEB51C4616460F46054601F0DAFEA878FFF7F7FD02460190334619
:4050400039460094284600F00DF8002808D1A8780199FFF711FDFF2C02D138460CF04CFFFEBD0000FFB585B005460E980C46FF2810D02B49C00009680A5840180179C07938
:405080005278814201D9012601E09006860F6846038108E06078A1788006860FE0780002014368460181284601F078FC070007D021462846079A00F073FC384609B0F0BDF8
:4050C000304600F021FD04AE0346039002AA29460096204600F0ADFB3C20405D002818D0284601F05BFC012813D0684600890096C0B20190A878231DFF22079902F0E8F861
:4051000068460089039BC2B2A878079902F028FCD3E7684600890021C0B20091E9E70000C00D0020F8B5002600253046FFF72AFD07001DD090201149704340186030447F97
:4051400012E0601CFCF70EFDCCB23846E040C007C00F07D02146304601F04AFF21463046FFF7A6FD6D1CEDB20548018AA942E8D8761C3606360ED7D0F8BD0000B4150020AB
:40518000A016002010B502F0BDF90020FFF7BEFE0CF048FF002010BDF8B5002400F0B2F80123012800D10124104F00203E4620360425082203E0002801D0002100E03146FC
:4051C0000979002907D001290BD002290BD0114681402143CCB2401C0006000EEBD07C70F8BD1C43F7E72C43F5E70000B415002010B5FFF7D1FF10BD10B5044604F0D4FBC1
:40520000002802D1601C00F001F810BD1CB500240094062269460194FDF7B0FB002800D1122420461CBD10B5FCF74BF90446FEF707FD012809D0FEF703FD022805D0FCF717
:40524000F9FB2046FCF741F9EEE72046FCF73DF910BD10B50B4681791943817103D08078114602F04BFB10BD10B582798A43827102D1807802F056FB10BD000030B50C4C59
:405280000220A28A0B4B9978002901D0022906D11D785B78EB18282B01D9032002E0032900D101205105490DC0020143A18230BDC0112E40780D002000B500F029F80028EE
:4052C00007D0012805D0032801D0042801D0002000BD012000BD014600B50020C90701D000F010F800BD014600B50020C90701D000F008F800BD00000148006870470000E1
:40530000700D002001480088000A704720102E400448008B410501D5042070474007800F7047000000102E400148406870470000700D002038B50446000610D5FFF7E8FF83
:4053400001280CD1684601F0C9FE6846007800F02BFB012001F0B0FD0220FFF749FF600708D507480179012904D1002101712620FFF71CFB0348006801692046884738BD2D
:405380007C0D0020A80D002010B501460A4A007800241070FFF7B6FF0128084603D002F0CFF9204610BD00F0E7F80400F9D1034801210170F5E70000780D0020741600206B
:4053C00070B50446FFF79EFF002801D00C2070BDA27B01211F48002A827801D00A4301E05208520082706279012A14D0C17849084900C170184D28680168204688472079D8
:4054000001280CD06188208803F006F82080207904280FD015E0C2780A43C270EAE72868C168E01D8847E01D02F00AFA0B48808C208006E02868C168E01D8847E01D02F051
:40544000FFF9074920798870204602F087F9002070BD0000B4150020A80D00206C150020780D002008B50178FFF74CFF814201D10C2008BD002914D0072069460870FFF7DC
:405480001BFF012807D10121684600F0E5F8012801D0092008BDFFF7F1FE02F093F9012011E0FFF709FF012806D1684601F016FE6846007800F0ACFA02F07AF9FFF722FFEE
:4054C0000028FBD10220FFF793FE002008BD000010B501460A4A007800245070FFF712FF0128084603D002F0E9F9204610BD00F065F80400F9D1034801214170F5E7000001
:40550000780D00207416002038B568460CF08AFC002801D01F2038BD01210098C90201804180002505714571857107214173857302F014F9009C202200212046FDF736FA68
:4055400025702A460021601CFDF730FA204602F0F7F8204602F0B2F900980CF0CDFC062200210448FDF722FA02480C388560002038BD00007C0D0020F8B5044600250D487D
:4055800000950078012806D068460CF04BFC002803D007250CE00C250AE0074E009830602278611C401CFDF7F8F93168207808702846F8BD74160020700D0020F8B50446E1
:4055C00000250D4800954078012806D068460CF029FC002803D007250CE00C250AE0074E009870602278611C401CFDF7D6F97168207808702846F8BD74160020700D0020A2
:405600000346084800B5834209D8184600F01AFE002804D00089984201D1012000BD002000BD0000FF0E0000074A9179491C8906890E917138220A4092014907090E11433D
:405640000843024908407047B4150020FF0E0000C006C00E70470000F8B507460E4600240D4803E0002C01D0002500E005462979002905D0641C2406240EF3D00020F8BD49
:405680000021204601F02AF92E712046FFF7CCFF28813C700120F8BDD415002010B503F06BF90222002100F003F801F0D7FE10BD10B5094B40074907000F090F185A595A7A
:4056C00040185043C0086421FCF74CFA002800D1012080B210BD000014420100F7B53D20405C88B015460C46002802D02878042802D200200BB0F0BD694608720026204668
:40570000FFF78CFA012800D00126204603A938300191009023460327A17E34333246206A03F04EF902A8089900900B46019120463A4603A9243003F0CBF802466846007A12
:405740002870204601F0B6F81046D3E7FFB587B00C4605461078694608723D20005D1746002826D000262046FFF758FA012800D00126204603A93830019100902346A17EF6
:4057800034333246206A03F01BF902A80090291D019120462B1D03A924300A9A03F098F802006846007A388002D1204601F082F810460BB0F0BDF0B505463C20405C89B02D
:4057C00016460C4600280CD0307869460873002806D000272046FFF721FA012803D003E01F2009B0F0BD012703200890204604A93830019100902346E17E34333A46E0698D
:4058000003F0DEF86846007B03A928180290009120462B46019504A92430089A03F08CF802466846007B3070204601F04DF81046D7E7FFB505463C20405C89B016460C4641
:40584000002810D0084601F0A9F801280BD0308869468883002809D000272046FFF7DEF9012805D005E000200DB0F0BD0220FBE70127204603A93830019100902346E17E72
:4058800034333A46E06903F09BF8291D2B1D07A8129A6D4607C5204603A924300C9A03F04BF802466846808B3080204601F00CF81046D9E770B50D460446FFF7AFF90128DD
:4058C0000AD0E87AA97A00020143A07801F0C2FC012808D0002070BD00222421204602F0EDFC242070BD28214C200155204600F0B1FB282070BD0000002801D0002000E05A
:4059000003484030C07F012800D0002070470000D41500200146002049070ED50021084B03E0002901D0002200E01A461279022A04D0491C0906090EF3D0704701207047DF
:40594000D41500200146002049070ED50021084B03E0002901D0002200E01A461279022A04D0491C0906090EF3D0704701207047D415002010B5044680346068002803D0DA
:405980000CF0CEFA0020606010BD4030417070474030817070474030017070470171704792001018C166704770B53C2501F09CF9040004D020460021433001F0FFFBFF2243
:4059C0002946204600F0E8FB002C02D0A07801F00DF970BD10B5002801D0002000E00348002802D0008903F03FFD10BDD415002010B5002801D0002000E00448002804D02E
:405A00000179072901D100F047F810BDD415002010B501F069F9002802D0807801F0E6F810BD00207047000070B50546008A00281ED01049F122897A1140C90618D529466D
:405A400040314A8A098A521C4A4392B2D10800D10121540801E0621A94B2A042FBD9FEF7BDFE012804D1298AA878224601F0B8FC70BD00006C15002010B50023054C0B608E
:405A8000248A944204D992001018C26E0A60C36610BD0000A016002038B5044600200090A079002814D14020015D052901D00E290ED168460CF0C6F9002809D1204600991B
:405AC00002F0DAFB03481021C28A2046FFF7C1FB38BD00006C15002010B50B4604460146184602F04BF8002802D020460CF00EFA10BD13B5044601AA11460620FDF7C2FF0F
:405B00006846818861811CBD002800D10220704770470000F8B504462346401D543300909A1EA078911E01F0F5FA25464035A88A298A8000FCF716F8401E81B2688A8842A4
:405B400003D96982A07801F05DFF698A8C20015120460021433001F031FB27480088E88102F00AFFE989891C8AB26179FFF7A0FD01F074FC02F000FF2A8A6179FFF798FD6B
:405B8000074601F05FFC688A002806D01B49088A032212021043088202E0002001F026FF1648803801886E8A002E0CD0304648431349FCF7C1F80004000C01D0401C80B21F
:405BC0001049488002E00F4800214180288A704381B2A07801F080FEFF2228374932B9B21346204602F01CFCE98AA07801F0F4FDA07801F025FAF8BD80102E40E0112E4074
:405C000071020000820D00207FB504468034616805460E46183108226846FCF7BEFE31462031082202A8FCF7B8FE102168460CF0A3F86068102108300CF09EF860682B4621
:405C4000083024331022694602F062FE7FBD10B504460821FFF708FB10212046FFF704FB207905281FD006281DD008281AD12189002003F071FB072020712046FEF7CEFF75
:405C8000014620464030012913D00E21017000210176204600F0BCFF2046FFF76BFE2046FFF7C2FE10BD20890122002103F038FBE1E70521EAE70000FFB581B01F4604465D
:405CC0000821FFF7D1FA10212046FFF7CDFA2079082803D0092804D0042203E00422012501E009220025204600F044FE264600204036307022712046FFF73CFE0398002D14
:405D000002D0012808D00BE001280AD120890022029903F005FB04E02189029803F01CFB012700203076012F04D0204600F070FF05B0F0BD02983073204602F0EBFA054638
:405D400005480121C28A2046FFF783FA002DEFD109202071ECE700006C15002070B50C460546FEF75BFF012809D108212846FFF77BFA0023012221462846FFF79DFF70BD84
:405D800010B5044600F0F6FD2046FFF7F3FD00214034217010BD70B505461A24FEF73EFF012809D108212846FFF75EFA0023012221462846FFF780FF70BD0000F8B5044636
:405DC000002000900E4668460CF03CF8002801D00D20F8BD8420005908212030009D00F02CFA20460421383000F027FA002E02D1204600F0FBFD2946204602F0CCF90E4888
:405E00000821C28A2046FFF724FA204600F071FF25464035002808D0204600F023F8002801D0092028700020F8BD08202870204600F0DAFFF7E700006C150020014610B553
:405E400040310A460978082906D0092907D00A2901D100F091F810BD0B20107010BD00F001F810BD70B50446007925464035052805D0062803D008280FD00C2070BD0322FF
:405E80000621204602F01AFA0D480821C28A2046FFF7DFF91120287010E006202873204602F038FA0646AA8A0A20424301212046FFF7CFF9002E01D109202071002070BDD1
:405EC0006C15002038B504460020009068460BF0B9FF002801D00D2038BD2046009D00F0C3F908202071204600F080FD2946204602F084F900213D2001550F20402108555E
:405F0000204600F071FF002038BD00B5024600F031FD10214032117000BD10B50446FEF77DFE012809D04020005D112805D100231A4606212046FFF7BFFE10BD10B5FFF7F2
:405F400086FE10BD38B504460021684600910BF079FF00280CD12046009902F0D0F905480821C28A2046FFF774F90D204034207038BD00006C15002038B5044600216846AF
:405F800000910BF05FFF002801D00D2038BD2046009902F0A9F905480821C28A2046FFF758F90C2040342070002038BD6C15002000787047F8B5002569460D70002801D0CE
:405FC000002400E01F4C002C18D0204600F0DBFC002813D0207903280BD005280CD026464036B18AA07801F081FCB078012806D01DE0042020711DE006202071F8BD002138
:40600000204601F0D8FD274680373868002802D00BF086FF3D600020B0702079072802D12046FFF701FD0221204600F0F7FE20790428E3D1207A694608703420FEF7B6FC81
:40604000F8BD0000D415002010B54C22115400F052F810BD10B50446FF21FFF705F909202071A07801F068FC10BD000038B5FF216A461180002801D0002400E00B4C002CDE
:4060800012D011460620FDF7FDFC684601882046FFF72FFD204600F087FC002804D104480068C1692046884738BD0000D4150020C40D002010B504468079002809D02221B1
:4060C0004C200155FF212046FFF7CEF8204600F012F810BD10B5037902464032002B03D01173092B02D003E0002100E02221117300F001F810BDFEB504460089002700904E
:406100002781207926464036002817D0012815D002280AD112E002AA01A9204601F01CFD002807D101980BF0F1FE204601F03CFD0028F0D02046FEF7C1FCB7762546803502
:406140002868002802D00BF0EBFE2F606868002802D00BF0E5FE6F60317B002919D0009800F064F8A078002100F086FF2046FFF795FAA07801F058F8A07800F037FDFF21BB
:406180002046FFF771F80B20FFF732F800F068FCFEBD1F213173E2E7F8B517460E46054602F0E6FB04003CD020460C3000F0F6FF2046062200211830FCF7F8FB2046062295
:4061C00000211230FCF7F2FB1648224600683946436A28469847074626702846FEF71EFD012148406070002D10D02889608028464030C1782171002E0FD169796171018A46
:40620000E180418A2181808A608106E00648008BC005C00F2071002060803946204603F01EF8F8BDA80D002000102E400A4610B50146002003F030F910BD10B50BF078FB33
:4062400010BD000000B50146FFF702FA002801D0002000E00348002802D002898A4200D0002000BDD415002038B5044680346068002806D168460BF0F5FD002801D1009839
:406280006060606838BD000010B5014600F086FB0128887802D0FEF7CBFC10BD90214843024940186030007F10BD0000B415002070B5054604464035A87F012811D1A17842
:4062C0009020084A484380186030067F3046FEF77DFE002805D10220A877A078314601F04DF870BDB415002010B50C4CA07A002813D0FEF717FF0A48027F417F408B00F0C9
:40630000B7FB012809D10020A07200F0FDFE05498989090B01D000F03BFA10BD84160020B4150020A0102E4070477047490510B5490F0B00FCF740FD060704080C0C0F0738
:406340003E21FFF781FE10BD0821FFF7C3FE10BDFFF7D1FE10BDFFF7ADFE10BDF8B507460025002D01D0002600E0204E00F09AFE3046403044890021418100F09DFE30461F
:4063800000F001FB01282BD1A00702D52846FFF711FEE00602D52846FFF768FEA00601D5FEF7C0FE600601D500F014FB200602D5284600F01DF8600702D5284600F02CFAB8
:4063C000380402D52846FFF713FB780402D52846FFF700FBE00703D021463046FFF7A6FF6D1C2D062D0EBCD0F8BD0000D4150020F8B5002801D0002400E0284C002C4BD08E
:4064000025464035A878012846D1FF278820493700593E46002805D02149897A890601D5878AC68A2046FEF7F9FB012834D002F0A3FA2A8A6179FFF73BF9009001F002F883
:4064400000983346283081B23A46204601F0E8FFE98AA07801F0C0F912480188688A124E002810D048431149FBF766FC0004000C01D0401C80B27080A07DC107C90F0020DB
:4064800001F086FA01E000207080288A698A484381B2A07801F020FAF8BD0000D41500206C15002060112E40820D0020710200000149096809680847C40D002070B50D46B0
:4064C0000026194A0146002801D0002401E014462034002C26D0204600F060FA01280AD19020484380186030007FFEF76FFD002801D101F08FFE0D480068816920468847B3
:4065000000280CD020464030817EA94202D3491B817600E086762089294602F05EFF204600F062FC70BD0000B4150020C40D002070B503460088FFF785FE040013D000F023
:4065400022FA00280FD02079092819D02546997840352973204601F0DDFE0646A878012803D0AA8A02E0022070BDEA880A20424301212046FEF76DFE002E01D109202071F6
:40658000002070BD0EB5002217216B460292198100905A810120029B00990BF061FD0EBDF8B518480024807A002822D1164E0025B089000B22E0204600F010FE1249A039FF
:4065C000401807882A462146384600F051FA012810D00E480122478305770A4944778A72002D01D0002000E02030002801D000F0FBFBF8BDB089000B641CE4B20028DAD143
:40660000F8BD000084160020A0102E40B415002010B50088FFF716FE002809D0014640310C460978082905D00B2903D00C2010BD022010BDFFF716FC002801D00920207052
:40664000002010BD70B503460088FFF7FBFD040008D0254640352878082805D00B2803D00C2070BD022070BD8420005910220830991CFCF792F92046FFF7C6FA28780828B4
:4066800004D02046FFF778FC002801D00A202870204600F0A9FB002070BD000010B50C46002121700088FFF7CDFD03000BD000F06AF9002807D00948F121807A0840C00688
:4066C00003D4112010BD022010BD022020701A8A1889002102F0FCFE002010BD6C150020F8B50F46002100910088FFF7ABFD040012D000F048F900280ED0E079410641D498
:40670000617E02264A07002A08DB8907402500291ADA2843E07135E00220F8BD02F028F90021017021894180A1898180217E4170E189C1803E7005460178134802F0A2FBA8
:40674000284602F069FE1DE0204600F02DF9012806D068460BF076FB002803D00720F8BD2A20F8BDE07900992843E071204601F0FBFD607E0421304360760448C28A2046A3
:40678000FEF767FD0020F8BD1D0400006C1500203EB500220F236C460292238100910190628169460EC900200BF05AFC3EBD0000F8B50F46054600F097FA040025D00320D7
:4067C0002071254600264035EE76E6702046FFF7A1F900F0EDFF0920FEF70AFDA07800F011FD0121204600F019FB2E706E70AE703A4600212046FFF7CFFC0649887B401C9F
:406800008873A078FFF754FEF8BD284601F094F8F8BD0000B415002010B5002801D0002000E0094800280DD0014640310A464978022901D100215170807DC107C90F002046
:4068400001F0A6F810BD0000D415002070B503460D460088FFF7F6FC04000BD000F093F8002807D01248F121807A0840C00603D4112070BD022070BD20464030418A008A06
:40688000491C41430804C10C5888884201D2122070BD20822079072802D12046FFF7C4F8022028702089002102F03AFE002070BD6C150020016A491C016204D1817E491CDD
:4068C0004906490E81767047C169491CC16104D1C17E491C4906490EC1767047F0B5074687B003A8009005A800260D460190002F01D0002400E01B4C002C05D06846FCF75E
:40690000A7F8002803D00BE0022007B0F0BD68460089C00704D1902200212046FCF746F8114829460068826820469047050016D1A77066762746267140373E70204600F05A
:4069400019F8204601F02CF9084820820848BE77807AF121084000D001202075E682E8B2D3E70000D4150020C40D0020B80B00006C150020002101628176C161C1762030FB
:406980000177417770470079002805D0012803D0022801D001207047002070474030807F002800D00120704740300078002807D0012805D0052803D00E2801D001207047D1
:4069C0000020704710B5807801F06AF8002800D0012010BD10B500F097FB03498989090B01D0FFF7D5FE10BDA0102E4070B5054604464035A87F002825D1FF206075A0780C
:406A00009021154A484380186030417F9023491CC9B24177A0785843104B8018DB896030994201D300214177A0789021484380186030467F0677A1783046FEF7C7FA00283B
:406A400002D00120A87770BD0220A877A078314600F094FC70BD0000B4150020A01600200020401C0006000EFBD0002070470000F0B515468207920F85B0000A02926A46BC
:406A80009080002D01D0002400E0564C002C28D0084600F0A3FB07466846808800280BD00298012843D0022841D003280BD03D20005D012879D08FE04B4838180188204698
:406AC000FFF717F888E00020029002A80BF09AF9002807D03D20005D012802D12046FFF7E9FE7CE06846029E8388324600213846FCF7DAFE3C48381801882046FEF7F9FF00
:406B0000284600F0A9FA01AA21463046FEF7E6FD002806D030460BF0E5F93D204C21085531E0F5773146204601F0A2F957E0002000902089039068460BF054F9002802D087
:406B4000002005B0F0BD6846009E8388321D00213846FCF7A9FE2448381801882046FEF7C8FF284600F078FA2046FFF70CFF002805D025464035287E002810D107E030462D
:406B80000BF0A6F92BE02046FFF764FA27E001AA21463046029BFEF7D9FD002806D030460BF096F93D202873EDE712E00298FEF7AFFF0399317003990001090A0143717074
:406BC00068468088B070000AF0703046FFF7DAFC05E02046FFF76EFE284600F03DFA0120AFE70000D415002000102E4010B5074A917B002901D0491E91730021FFF76EFE89
:406C0000002801D0002010BD012010BDB4150020F8B5074606464037B87F00282DD0B078902100904843234945186035287F0099FEF7E1F901281ED0287F401CC4B21E4827
:406C4000C089A04200D800240020B877FF276F772F77A87702460146009800F0FBFC717DFF2903D0304600F05CFF777501F0D2FA0025114F19E00320B877F8BD0020009037
:406C8000224669463046FEF7F7FE0099002904D0FF231A463046FEF7C6F9641CF889E4B2A04200D800246D1CEDB2F889A842E5D8F8BD0000B4150020A016002010B50246D5
:406CC0000021084B03E0002901D0002000E018460479944204D0491C0906090EF3D0002010BD0000D415002000B50120FFF7E6FF00BD10B5044601F03BFE218901808034F4
:406D00006168416061682831816002F03FFB10BDF7B50646087982B00C46092807D0A078F0770846FFF73AFE012806D010E030460BF0ECF8022005B0F0BDA1789020294AE9
:406D4000484380186030007FFEF740F9012810D0A078FEF7D1FD01280BD037780121304601F004FA25462035062F38D00B2F0FD107E06846027C21463046FEF7ADFE0D20C1
:406D8000D9E72046FDF74AFF012801D1002028772046FFF779FA054604AA21463046FEF70AFD01205F2108556946097C002001910090A07833463A46294600F089FA6946FF
:406DC0000A7CA0780323294600F0CAFDA0782946FDF752FE30460BF099F80020ABE70120D5E70000B415002010B502464032937F0021002B03D1927E002A00D00121064A37
:406E0000927A002A00D000210279092A00D10121807800F0DDFD10BD8416002070B50C460546FDF7FBFE00280BD1012C06D92879092806D02846FFF7C5FD0446002C02D06C
:406E400004E0012402E0A87DC007FAD1A87DC107C90F204600F09CFD70BD0000012807D0082804D104480282034808300180704701488038FAE70000A0102E40014908812C
:406E80007047000000102E4010B50446FF20F130012C01D1FF20D530002200F0CBFD044A108A044980B2A0430880108210BD000000102E40860D0020034B198A034A89B276
:406EC000814311801982704700102E40860D002010B50446012802D0082C07D102E0FF20D53001E0FF20F13000F09CFD0348018A034A89B221431180018210BD00102E40D3
:406F0000860D0020034B198A034A89B2014311801982704700102E40860D0020F8B505460120A84086B214460F46012231467C2000F080FD3A463146782000F07BFD607873
:406F4000267800020643E078A2780002024360792379000203430C2045430D2080010549281844182680001D44182280001D40180380F8BD00102E40CB065B0E03434809A9
:406F800001021943D00108430121C902084301490881704780142E404278037812021343084A1382C37880781B021843908248780B78000203431383C878897800020143A7
:406FC0009183704700142E40024A1080000C90801181704700142E40044A002180180288491C89B21029FAD37047000000102E40024A10820148803081817047A0102E4067
:4070000010B5054A1082084600F038FD024A0021A03A8018018010BDA0102E4010B50B46044600F005F819462046FFF7E1FF10BD024A10820148803001817047A0102E4009
:4070400010B504490882FF20002220211D3000F0F1FC10BDA0102E40000202494D3008807047000000102E400249888A0422904388827047C0112E4010B5084B074C020291
:40708000A03B0029208202D075321A8010BD04490020088088807632F7E70000A0102E40201A2E4000B5034908884880FFF704FF00BD0000860D002000B502484088FFF782
:4070C00021FF00BD860D002010B5FCF7A3FD10BD014952200880704700102E4000210170704700000748808806492039098B884201D8081A03E00022D243101A401880B2F3
:407100007047000020112E400148008AC0B27047A0102E4070B5084C049D2082074804890548603006880E8001891180808818806007400F287070BDA0102E40E0112E409B
:407140000148008970470000C0102E4000280FD00D4A108B0870000A4870908B8870000AC8700948203000880871000A48717047064A10880870000A487090888870000A68
:40718000C8701089F0E7000040102E40C0112E400148008A70470000001A2E40064B1A8999891B8A0270120A42708170090AC1700371190A4171704760102E40012904D00C
:4071C0000549098BC90B017070470349403109898907C90FF7E7000000102E400148408970470000A0160020044A10820448028980894843101880B270470000A0102E4085
:40720000A01600209021074B414300B5C918FF2260314A770A7700228A77114600F01AFA00BD0000B415002090225043074A10B58018FF216030417701770021817704480B
